{
  "contractName": "ERC20",
  "abi": [
    {
      "anonymous": false,
      "inputs": [
        {
          "indexed": true,
          "internalType": "address",
          "name": "from",
          "type": "address"
        },
        {
          "indexed": true,
          "internalType": "address",
          "name": "to",
          "type": "address"
        },
        {
          "indexed": false,
          "internalType": "uint256",
          "name": "token",
          "type": "uint256"
        }
      ],
      "name": "Transfer",
      "type": "event"
    },
    {
      "inputs": [
        {
          "internalType": "address",
          "name": "",
          "type": "address"
        }
      ],
      "name": "balances",
      "outputs": [
        {
          "internalType": "uint256",
          "name": "",
          "type": "uint256"
        }
      ],
      "stateMutability": "view",
      "type": "function"
    },
    {
      "inputs": [],
      "name": "decimals",
      "outputs": [
        {
          "internalType": "uint256",
          "name": "",
          "type": "uint256"
        }
      ],
      "stateMutability": "view",
      "type": "function"
    },
    {
      "inputs": [],
      "name": "founder",
      "outputs": [
        {
          "internalType": "uint256",
          "name": "",
          "type": "uint256"
        }
      ],
      "stateMutability": "view",
      "type": "function"
    },
    {
      "inputs": [],
      "name": "name",
      "outputs": [
        {
          "internalType": "string",
          "name": "",
          "type": "string"
        }
      ],
      "stateMutability": "view",
      "type": "function"
    },
    {
      "inputs": [],
      "name": "symbol",
      "outputs": [
        {
          "internalType": "string",
          "name": "",
          "type": "string"
        }
      ],
      "stateMutability": "view",
      "type": "function"
    },
    {
      "inputs": [],
      "name": "totalSupply",
      "outputs": [
        {
          "internalType": "uint256",
          "name": "",
          "type": "uint256"
        }
      ],
      "stateMutability": "view",
      "type": "function"
    },
    {
      "inputs": [
        {
          "internalType": "address",
          "name": "tokenOwner",
          "type": "address"
        }
      ],
      "name": "balanceOf",
      "outputs": [
        {
          "internalType": "uint256",
          "name": "balance",
          "type": "uint256"
        }
      ],
      "stateMutability": "view",
      "type": "function"
    },
    {
      "inputs": [
        {
          "internalType": "address",
          "name": "to",
          "type": "address"
        },
        {
          "internalType": "uint256",
          "name": "tokens",
          "type": "uint256"
        }
      ],
      "name": "transfer",
      "outputs": [
        {
          "internalType": "bool",
          "name": "success",
          "type": "bool"
        }
      ],
      "stateMutability": "nonpayable",
      "type": "function"
    }
  ],
  "bytecode": "0x60806040526040518060400160405280600781526020017f43727970746f7300000000000000000000000000000000000000000000000000815250600090816200004a919062000325565b506040518060400160405280600481526020017f43525054000000000000000000000000000000000000000000000000000000008152506001908162000091919062000325565b506000600255348015620000a457600080fd5b506200040c565b600081519050919050565b7f4e487b7100000000000000000000000000000000000000000000000000000000600052604160045260246000fd5b7f4e487b7100000000000000000000000000000000000000000000000000000000600052602260045260246000fd5b600060028204905060018216806200012d57607f821691505b602082108103620001435762000142620000e5565b5b50919050565b60008190508160005260206000209050919050565b60006020601f8301049050919050565b600082821b905092915050565b600060088302620001ad7fffffffffffffffffffffffffffffffffffffffffffffffffffffffffffffffff826200016e565b620001b986836200016e565b95508019841693508086168417925050509392505050565b6000819050919050565b6000819050919050565b60006200020662000200620001fa84620001d1565b620001db565b620001d1565b9050919050565b6000819050919050565b6200022283620001e5565b6200023a62000231826200020d565b8484546200017b565b825550505050565b600090565b6200025162000242565b6200025e81848462000217565b505050565b5b8181101562000286576200027a60008262000247565b60018101905062000264565b5050565b601f821115620002d5576200029f8162000149565b620002aa846200015e565b81016020851015620002ba578190505b620002d2620002c9856200015e565b83018262000263565b50505b505050565b600082821c905092915050565b6000620002fa60001984600802620002da565b1980831691505092915050565b6000620003158383620002e7565b9150826002028217905092915050565b6200033082620000ab565b67ffffffffffffffff8111156200034c576200034b620000b6565b5b62000358825462000114565b620003658282856200028a565b600060209050601f8311600181146200039d576000841562000388578287015190505b62000394858262000307565b86555062000404565b601f198416620003ad8662000149565b60005b82811015620003d757848901518255600182019150602085019450602081019050620003b0565b86831015620003f75784890151620003f3601f891682620002e7565b8355505b6001600288020188555050505b505050505050565b6108b8806200041c6000396000f3fe608060405234801561001057600080fd5b50600436106100885760003560e01c80634d853ee51161005b5780634d853ee51461011757806370a082311461013557806395d89b4114610165578063a9059cbb1461018357610088565b806306fdde031461008d57806318160ddd146100ab57806327e235e3146100c9578063313ce567146100f9575b600080fd5b6100956101b3565b6040516100a29190610571565b60405180910390f35b6100b3610241565b6040516100c091906105ac565b60405180910390f35b6100e360048036038101906100de919061062a565b610247565b6040516100f091906105ac565b60405180910390f35b61010161025f565b60405161010e91906105ac565b60405180910390f35b61011f610265565b60405161012c91906105ac565b60405180910390f35b61014f600480360381019061014a919061062a565b61026b565b60405161015c91906105ac565b60405180910390f35b61016d6102b4565b60405161017a9190610571565b60405180910390f35b61019d60048036038101906101989190610683565b610342565b6040516101aa91906106de565b60405180910390f35b600080546101c090610728565b80601f01602080910402602001604051908101604052809291908181526020018280546101ec90610728565b80156102395780601f1061020e57610100808354040283529160200191610239565b820191906000526020600020905b81548152906001019060200180831161021c57829003601f168201915b505050505081565b60035481565b60056020528060005260406000206000915090505481565b60025481565b60045481565b6000600560008373ffffffffffffffffffffffffffffffffffffffff1673ffffffffffffffffffffffffffffffffffffffff168152602001908152602001600020549050919050565b600180546102c190610728565b80601f01602080910402602001604051908101604052809291908181526020018280546102ed90610728565b801561033a5780601f1061030f5761010080835404028352916020019161033a565b820191906000526020600020905b81548152906001019060200180831161031d57829003601f168201915b505050505081565b600081600560003373ffffffffffffffffffffffffffffffffffffffff1673ffffffffffffffffffffffffffffffffffffffff1681526020019081526020016000205410156103c6576040517f08c379a00000000000000000000000000000000000000000000000000000000081526004016103bd906107cb565b60405180910390fd5b81600560008573ffffffffffffffffffffffffffffffffffffffff1673ffffffffffffffffffffffffffffffffffffffff1681526020019081526020016000206000828254610415919061081a565b9250508190555081600560003373ffffffffffffffffffffffffffffffffffffffff1673ffffffffffffffffffffffffffffffffffffffff168152602001908152602001600020600082825461046b919061084e565b925050819055508273ffffffffffffffffffffffffffffffffffffffff163373ffffffffffffffffffffffffffffffffffffffff167fddf252ad1be2c89b69c2b068fc378daa952ba7f163c4a11628f55a4df523b3ef846040516104cf91906105ac565b60405180910390a36001905092915050565b600081519050919050565b600082825260208201905092915050565b60005b8381101561051b578082015181840152602081019050610500565b60008484015250505050565b6000601f19601f8301169050919050565b6000610543826104e1565b61054d81856104ec565b935061055d8185602086016104fd565b61056681610527565b840191505092915050565b6000602082019050818103600083015261058b8184610538565b905092915050565b6000819050919050565b6105a681610593565b82525050565b60006020820190506105c1600083018461059d565b92915050565b600080fd5b600073ffffffffffffffffffffffffffffffffffffffff82169050919050565b60006105f7826105cc565b9050919050565b610607816105ec565b811461061257600080fd5b50565b600081359050610624816105fe565b92915050565b6000602082840312156106405761063f6105c7565b5b600061064e84828501610615565b91505092915050565b61066081610593565b811461066b57600080fd5b50565b60008135905061067d81610657565b92915050565b6000806040838503121561069a576106996105c7565b5b60006106a885828601610615565b92505060206106b98582860161066e565b9150509250929050565b60008115159050919050565b6106d8816106c3565b82525050565b60006020820190506106f360008301846106cf565b92915050565b7f4e487b7100000000000000000000000000000000000000000000000000000000600052602260045260246000fd5b6000600282049050600182168061074057607f821691505b602082108103610753576107526106f9565b5b50919050565b7f6e6f7420656e6f7567682062616c616e636520617661696c61626c6520746f2060008201527f7472616e66657200000000000000000000000000000000000000000000000000602082015250565b60006107b56027836104ec565b91506107c082610759565b604082019050919050565b600060208201905081810360008301526107e4816107a8565b9050919050565b7f4e487b7100000000000000000000000000000000000000000000000000000000600052601160045260246000fd5b600061082582610593565b915061083083610593565b9250828201905080821115610848576108476107eb565b5b92915050565b600061085982610593565b915061086483610593565b925082820390508181111561087c5761087b6107eb565b5b9291505056fea264697066735822122070d4be61b94daead0118dbc331abec6db54dda05d880fe01826ac6c9155bdb9164736f6c63430008100033",
  "immutableReferences": {},
  "source": "// SPDX-License-Identifier: GPL-3.0\npragma solidity >=0.7.0 <0.9.0;\ninterface ERC20Interface{\n    function totalSupply() external view returns(uint);\n    function balanceOf(address tokenOwner) external view returns (uint balance);\n    function transfer(address to,uint tokens) external returns(bool success);\n\n\n    // function allowance(address tokenOwner,address spender) external view returns(uint remaining);\n    // function approve(address spender,uint tokens) external returns (bool success);\n    // function tranferFrom(address from,address to,uint tokens) external returns (bool success);\n\n\n    event Transfer(address indexed from, address indexed to, uint token);\n    //event Approval(address indexed tokenOwner,address indexed spender,uint tokens);\n\n\n\n}\n\n\ncontract ERC20 is ERC20Interface{\n    \n    string public name = \"Cryptos\";\n    string public symbol= \"CRPT\";\n    uint public decimals = 0; //18\n    // total supply - represent the toral number of tokens\n    uint public override totalSupply; // a getter function will be created bcz the variable is public\n\n    uint public founder;\n    // map to store each address and no of tokens with respect to it\n    mapping(address=>uint) public balances;\n\n\n      function balanceOf(address tokenOwner) public view override returns (uint balance){\n        return balances[tokenOwner];\n      }\n  \n function transfer(address to,uint tokens) public override returns(bool success){\n      \n       require(balances[msg.sender]>=tokens,\"not enough balance available to tranfer\");\n       \n       balances[to] +=tokens;\n       balances[msg.sender] -= tokens;\n\n       emit Transfer(msg.sender, to, tokens);\n       return true;\n }\n\n    \n\n\n}",
  "sourcePath": "/home/tuba/Work-Folder/BlockChain-Developement/ERC20-Token-Project/src/contracts/ERC20Project.sol",
  "compiler": {
    "name": "solc",
    "version": "0.8.16+commit.07a7930e.Emscripten.clang"
  },
  "schemaVersion": "3.4.9",
  "updatedAt": "2022-09-06T12:40:45.393Z",
  "devdoc": {
    "kind": "dev",
    "methods": {},
    "version": 1
  },
  "userdoc": {
    "kind": "user",
    "methods": {},
    "version": 1
  }
}